:100000000EC021C01FC01EC01DC01CC01BC01AC016
:1000100019C018C017C016C015C014C013C01124D1
:100020001FBECFE5D2E0DEBFCDBF10E0A0E6B0E05E
:10003000E8EBF0E002C005900D92A236B107D9F7C7
:1000400026D038C0DDCF1F920F920FB60F92112429
:100050008F9380916000882369F01092600080B5D2
:100060008F6080BDC39885B7806185BF85B780628A
:1000700085BF07C085B78F7D85BF10BC81E08093A9
:1000800060008F910F900FBE0F901F90189588E021
:1000900087BB80E48BBF789498E088B3892788BBBE
:1000A0002FE936E881E0215030408040E1F700C080
:0800B0000000F3CFF894FFCF2C
:0200B800010045
:00000001FF
