:100000000EC015C014C013C012C011C010C00FC064
:100010000EC00DC00CC00BC00AC009C008C011241E
:100020001FBECFE5D2E0DEBFCDBF16D031C0E8CFD6
:1000300026B330E002C0359527958A95E2F7822FE6
:100040008170089581B5806181BD81B5806281BD77
:1000500081B5886081BD08958FE087BBBC9818BAD0
:100060007894F0DFC0E084E0E3DF8111FCCFA89555
:100070002FE788E391E0215080409040E1F700C0F5
:100080000000C03110F4CF5F01C0C0E0C8BBEBCFAF
:04009000F894FFCF12
:00000001FF
