:100000000EC01EC01CC01BC01AC019C018C017C02B
:1000100016C015C014C013C012C011C010C01124E6
:100020001FBECFE5D2E0DEBFCDBF10E0A0E6B0E05E
:1000300001C01D92A136B107E1F718D035C0E0CF5D
:100040001F920F920FB60F9211248F938091600030
:10005000882319F01092600003C081E08093600053
:100060008F910F900FBE0F901F90189588E087BB5F
:1000700081E085BF80E48BBF789498E088B38927BE
:1000800088BB80916000882329F0E7EAF1E6319788
:10009000F1F707C0FFE32DE033E0F150204030409E
:0C00A000E1F700C00000EACFF894FFCFA9
:00000001FF
