:100000000EC065C01CC01BC01AC01AC018C017C0E3
:1000100016C015C014C013C012C011C010C01124E6
:100020001FBECFE5D2E0DEBFCDBF10E0A0E6B0E05E
:1000300001C01D92A536B107E1F75FD06DC0E0CFDA
:100040001F920F920FB60F9211242F933F938F930D
:100050009F9380916400882319F028EE33E002C05A
:1000600024E630E0809162009091630001969093C5
:10007000630080936200809162009091630080979A
:10008000E9F41092630010926200809160009091F8
:1000900061008217930750F4809160009091610095
:1000A0000196909361008093600008C088B398E047
:1000B000892788BB10926100109260009F918F91F8
:1000C0003F912F910F900FBE0F901F9018951F9288
:1000D0000F920FB60F9211248F93809164008823A2
:1000E00019F01092640003C081E0809364008F9146
:1000F0000F900FBE0F901F90189588E087BB80E887
:1001000086BD16BC81E085BF90E49BBF92E099BF9D
:0C01100012BE83BF7894FFCFF894FFCF9D
:00000001FF
