:100000000EC015C014C013C012C011C010C00FC064
:100010000EC00DC00CC00BC00BC009C008C011241D
:100020001FBECFE5D2E0DEBFCDBF26D041C0E8CFB6
:100030001F920F920FB60F9211248F9388B38F6087
:1000400088BB8F910F900FBE0F901F90189526B30D
:1000500030E002C0359527958A95E2F7822F8170AE
:10006000089581B5806481BD81B5806181BD81B510
:10007000806281BD089508958FE087BBBC9818BA4F
:100080007894EFDFC0E084E0E2DF8111FCCFA89537
:100090002FE788E391E0215080409040E1F700C0D5
:1000A0000000C03110F4CF5F01C0C0E0C8BBEBCF8F
:0400B000F894FFCFF2
:00000001FF
