:100000000EC015C014C013C012C011C010C00FC064
:100010000EC00DC00CC00BC00AC009C008C011241E
:100020001FBECFE5D2E0DEBFCDBF0CD027C0E8CFEA
:1000300026B330E002C0359527958A95E2F7822FE6
:100040008170089588E087BBC8E084E0F1DF8823F1
:1000500059F088B38C2788BB2FE986E891E02150BE
:1000600080409040E1F707C088B38C2788BB8FE4BD
:1000700093EC0197F1F700C00000E7CFF894FFCFB1
:00000001FF
