:100000000EC01DC01CC01BC01AC019C018C017C02C
:1000100016C015C014C013C01DC011C010C01124DB
:100020001FBECFE5D2E0DEBFCDBF10E0A0E6B0E05E
:1000300001C01D92A136B107E1F761D08DC0E0CFBC
:10004000E199FECF1CBA90E09FBB8EBB6DBBE29ADC
:10005000E19A08951F920F920FB60F9211242F93D9
:100060003F934F935F936F937F938F939F93AF9340
:10007000BF93EF93FF9388B38F6088BB609160005C
:1000800080E0DEDF81B58F7B81BD81B5886081BD79
:10009000FF91EF91BF91AF919F918F917F916F9160
:1000A0005F914F913F912F910F900FBE0F901F9036
:1000B0001895E199FECF90E09FBB8EBBE09A8DB37F
:1000C000089526B330E002C0359527958A95E2F76A
:1000D000822F8170089581B5806181BD81B5806274
:1000E00081BD81B5886081BD089581B5806481BD81
:1000F00081B5806181BD81B5806281BD0895109216
:1001000060008FE087BBBC9818BA789404B603FEF1
:1001100004C080E0CEDF80936000E7DF84E0D1DFC1
:100120008111FCCFA8952FE788E391E02150804012
:100130009040E1F700C0000080916000803130F411
:10014000809160008F5F8093600002C01092600019
:0C0150008091600088BBE2CFF894FFCFE4
:00000001FF
